{
  "contractName": "Proof",
  "abi": [
    {
      "anonymous": false,
      "inputs": [
        {
          "indexed": false,
          "name": "status",
          "type": "bool"
        },
        {
          "indexed": false,
          "name": "timestamp",
          "type": "uint256"
        },
        {
          "indexed": false,
          "name": "owner",
          "type": "string"
        },
        {
          "indexed": false,
          "name": "fileHash",
          "type": "string"
        }
      ],
      "name": "logFileAddedStatus",
      "type": "event",
      "signature": "0x0d3bbc3c02da6ed436712ca1a0f626f1269df703a105f034e4637c7b10fb7ba5"
    },
    {
      "constant": false,
      "inputs": [
        {
          "name": "owner",
          "type": "string"
        },
        {
          "name": "fileHash",
          "type": "string"
        }
      ],
      "name": "set",
      "outputs": [],
      "payable": false,
      "stateMutability": "nonpayable",
      "type": "function",
      "signature": "0xe942b516"
    },
    {
      "constant": true,
      "inputs": [
        {
          "name": "fileHash",
          "type": "string"
        }
      ],
      "name": "get",
      "outputs": [
        {
          "name": "timestamp",
          "type": "uint256"
        },
        {
          "name": "owner",
          "type": "string"
        }
      ],
      "payable": false,
      "stateMutability": "view",
      "type": "function",
      "signature": "0x693ec85e"
    }
  ],
  "bytecode": "0x608060405234801561001057600080fd5b506108b5806100206000396000f3fe60806040526004361061004c576000357c0100000000000000000000000000000000000000000000000000000000900463ffffffff168063693ec85e14610051578063e942b51614610199575b600080fd5b34801561005d57600080fd5b506101176004803603602081101561007457600080fd5b810190808035906020019064010000000081111561009157600080fd5b8201836020820111156100a357600080fd5b803590602001918460018302840111640100000000831117156100c557600080fd5b91908080601f016020809104026020016040519081016040528093929190818152602001838380828437600081840152601f19601f8201169050808301925050505050505091929192905050506102f8565b6040518083815260200180602001828103825283818151815260200191508051906020019080838360005b8381101561015d578082015181840152602081019050610142565b50505050905090810190601f16801561018a5780820380516001836020036101000a031916815260200191505b50935050505060405180910390f35b3480156101a557600080fd5b506102f6600480360360408110156101bc57600080fd5b81019080803590602001906401000000008111156101d957600080fd5b8201836020820111156101eb57600080fd5b8035906020019184600183028401116401000000008311171561020d57600080fd5b91908080601f016020809104026020016040519081016040528093929190818152602001838380828437600081840152601f19601f8201169050808301925050505050505091929192908035906020019064010000000081111561027057600080fd5b82018360208201111561028257600080fd5b803590602001918460018302840111640100000000831117156102a457600080fd5b91908080601f016020809104026020016040519081016040528093929190818152602001838380828437600081840152601f19601f82011690508083019250505050505050919291929050505061047e565b005b600060606000836040518082805190602001908083835b602083101515610334578051825260208201915060208101905060208303925061030f565b6001836020036101000a0380198251168184511680821785525050505050509050019150509081526020016040518091039020600001546000846040518082805190602001908083835b6020831015156103a3578051825260208201915060208101905060208303925061037e565b6001836020036101000a0380198251168184511680821785525050505050509050019150509081526020016040518091039020600101808054600181600116156101000203166002900480601f01602080910402602001604051908101604052809291908181526020018280546001816001161561010002031660029004801561046e5780601f106104435761010080835404028352916020019161046e565b820191906000526020600020905b81548152906001019060200180831161045157829003601f168201915b5050505050905091509150915091565b600080826040518082805190602001908083835b6020831015156104b75780518252602082019150602081019050602083039250610492565b6001836020036101000a03801982511681845116808217855250505050505090500191505090815260200160405180910390206000015414156106c1576040805190810160405280428152602001838152506000826040518082805190602001908083835b602083101515610541578051825260208201915060208101905060208303925061051c565b6001836020036101000a038019825116818451168082178552505050505050905001915050908152602001604051809103902060008201518160000155602082015181600101908051906020019061059a9291906107e4565b509050507f0d3bbc3c02da6ed436712ca1a0f626f1269df703a105f034e4637c7b10fb7ba5600142848460405180851515151581526020018481526020018060200180602001838103835285818151815260200191508051906020019080838360005b838110156106185780820151818401526020810190506105fd565b50505050905090810190601f1680156106455780820380516001836020036101000a031916815260200191505b50838103825284818151815260200191508051906020019080838360005b8381101561067e578082015181840152602081019050610663565b50505050905090810190601f1680156106ab5780820380516001836020036101000a031916815260200191505b50965050505050505060405180910390a16107e0565b7f0d3bbc3c02da6ed436712ca1a0f626f1269df703a105f034e4637c7b10fb7ba5600042848460405180851515151581526020018481526020018060200180602001838103835285818151815260200191508051906020019080838360005b8381101561073b578082015181840152602081019050610720565b50505050905090810190601f1680156107685780820380516001836020036101000a031916815260200191505b50838103825284818151815260200191508051906020019080838360005b838110156107a1578082015181840152602081019050610786565b50505050905090810190601f1680156107ce5780820380516001836020036101000a031916815260200191505b50965050505050505060405180910390a15b5050565b828054600181600116156101000203166002900490600052602060002090601f016020900481019282601f1061082557805160ff1916838001178555610853565b82800160010185558215610853579182015b82811115610852578251825591602001919060010190610837565b5b5090506108609190610864565b5090565b61088691905b8082111561088257600081600090555060010161086a565b5090565b9056fea165627a7a7230582096d6b001f4c721d402c7e000bbf52b16133e2afd04117b8a649bace00d2f9a120029",
  "source": "pragma solidity ^0.5.0;\n\ncontract Proof\n{\n      \n    struct FileDetails\n\t{\n\t\tuint timestamp; \n                string owner;\n       }\n      mapping(string =>FileDetails) files;\n    event logFileAddedStatus(bool status, uint timestamp, string owner, string fileHash);\n\n      //this is used to store the owner of file at the block timestamp\n      function set(string memory owner, string memory fileHash) public\n            {\n\t\tif(files[fileHash].timestamp == 0){\n                    files[fileHash]=FileDetails(block.timestamp,owner);\n                         \n                 emit logFileAddedStatus(true,block.timestamp,owner,fileHash);\n                   }\n                else {\n                  emit logFileAddedStatus(false,block.timestamp,owner,fileHash);\n                     }\n            }\n    \n         //get file information\n          function get(string memory fileHash) public view returns (uint timestamp,string memory owner)\n               {\n                   return (files[fileHash].timestamp, files[fileHash].owner);\n                }\n           }\n\n",
  "sourcePath": "/Users/Alma/Documents/EthereumFolder/contracts/proof.sol",
  "compiler": {
    "name": "solc",
    "version": "0.5.0+commit.1d4f565a.Emscripten.clang"
  },
  "schemaVersion": "3.0.0",
  "updatedAt": "2019-01-10T03:07:01.635Z",
  "devdoc": {
    "methods": {}
  },
  "userdoc": {
    "methods": {}
  }
}