{
  "contractName": "Counter",
  "abi": [
    {
      "anonymous": false,
      "inputs": [
        {
          "indexed": false,
          "name": "count",
          "type": "int256"
        }
      ],
      "name": "CounterIncrementEvent",
      "type": "event",
      "signature": "0xe8170535d7d6063c837db88649e46f9074f6c18c27dfe8d1ab4b3058bc87604d"
    },
    {
      "anonymous": false,
      "inputs": [
        {
          "indexed": false,
          "name": "count",
          "type": "int256"
        }
      ],
      "name": "CounterDecrementEvent",
      "type": "event",
      "signature": "0xf9f6428265c59bfb44e525ed0a36be0cc48ce5552854283b48762e8a09884e84"
    },
    {
      "constant": false,
      "inputs": [],
      "name": "incrementCounter",
      "outputs": [],
      "payable": false,
      "stateMutability": "nonpayable",
      "type": "function",
      "signature": "0x5b34b966"
    },
    {
      "constant": false,
      "inputs": [],
      "name": "decrementCounter",
      "outputs": [],
      "payable": false,
      "stateMutability": "nonpayable",
      "type": "function",
      "signature": "0xf5c5ad83"
    },
    {
      "constant": true,
      "inputs": [],
      "name": "getCount",
      "outputs": [
        {
          "name": "",
          "type": "int256"
        }
      ],
      "payable": false,
      "stateMutability": "view",
      "type": "function",
      "signature": "0xa87d942c"
    }
  ],
  "bytecode": "0x60806040526000805534801561001457600080fd5b50610180806100246000396000f3fe608060405260043610610057576000357c0100000000000000000000000000000000000000000000000000000000900463ffffffff1680635b34b9661461005c578063a87d942c14610073578063f5c5ad831461009e575b600080fd5b34801561006857600080fd5b506100716100b5565b005b34801561007f57600080fd5b50610088610100565b6040518082815260200191505060405180910390f35b3480156100aa57600080fd5b506100b3610109565b005b600160008082825401925050819055507fe8170535d7d6063c837db88649e46f9074f6c18c27dfe8d1ab4b3058bc87604d6000546040518082815260200191505060405180910390a1565b60008054905090565b600160008082825403925050819055507ff9f6428265c59bfb44e525ed0a36be0cc48ce5552854283b48762e8a09884e846000546040518082815260200191505060405180910390a156fea165627a7a72305820e5c6d5a4c159099a0ccce5f22a9334422967e15e7f4bc0207ab9e7abc921f95c0029",
  "source": "pragma solidity ^0.5.0;\n\ncontract Counter{\n    event CounterIncrementEvent(int count);\n    event CounterDecrementEvent(int count);\n\n   int private count=0;\n\n    function incrementCounter() public{\n         count+=1;\n         emit CounterIncrementEvent(count);\n     }\n\n     function decrementCounter() public{\n        count-=1;\n        emit CounterDecrementEvent(count);\n}\n\n function getCount() public view returns (int) {\n       return count;\n   }\n\n}\n",
  "sourcePath": "/Users/Alma/Documents/EthereumFolder/contracts/counter.sol",
  "compiler": {
    "name": "solc",
    "version": "0.5.0+commit.1d4f565a.Emscripten.clang"
  },
  "schemaVersion": "3.0.0",
  "updatedAt": "2019-01-10T03:07:01.344Z",
  "devdoc": {
    "methods": {}
  },
  "userdoc": {
    "methods": {}
  }
}